:1000000000308A009E280000FF00030E8301A1003B
:100010007F08A0000A08A7008A01A00E0408A20019
:100020007708A3007808A4007908A5007A08A6003C
:10003000831383120B1E1E288B184A288C308400D1
:10004000001C24280C185828220884002308F700D4
:100050002408F8002508F9002608FA0027088A0075
:10006000210E8300FF0E7F0E09002A3084008313C7
:100070000008031949280130F800F701F70B3E2862
:10008000F80B3D284A30F700F70B44284728800B2F
:100090003B2808000A30AA0035208B108F018E0102
:1000A00085309000A901A80A0B168B108A1124280C
:1000B000A90A0C1083160C1006148312061C68285B
:1000C00029080F3C031D68289001A901A801962862
:1000D00029081E3C031D96289001A901280B7528AC
:1000E00083160510831205148A282808023C031D74
:1000F0007E2883168510831285148A282808033CDD
:10010000031D8A2883160510831205148316851093
:1001100083128514C830AA00352083160510831277
:1001200005108316851083128510A80183160C1400
:1001300083128F018E010C108A11242884018313ED
:100140001F308305A801A90107309F000F30F70079
:1001500081018130840083130008F0390738800062
:1001600064000008F739F719F03977048000831626
:100170000510831205108316851083128510640004
:100180000B16831601170C14C03083128B04640005
:04019000C728630019
:02400E00543F1D
:00000001FF
;PIC16F628A
;CRC=1D30  CREATED="19-fev-21 16:05"
